:100000000C9463000C948B000C948B000C94BB023A
:100010000C94BB020C94BB020C948B000C948B00D0
:100020000C948B000C948B000C948B000C948B0024
:100030000C948B000C948B000C948B000C948B0014
:100040000C9471020C948B000C948B000C948B001C
:100050000C948B000C948B000C948B000C948B00F4
:100060000C948B000C948B000000000023002600F1
:10007000290000000000240027002A0000000000E2
:10008000250028002B0004040404040404040202D4
:100090000202020203030303030301020408102007
:1000A0004080010204081020010204081020000012
:1000B0000008000201000003040700000000000027
:1000C00000002F059A0511241FBECFEFD8E0DEBF38
:1000D000CDBF22E0A2E4B1E001C01D92AF3BB20768
:1000E000E1F711E0A0E0B1E0E2E2FCE002C005903F
:1000F0000D92A234B107D9F710E0C2E6D0E004C0F7
:100100002197FE010E94FE05C136D107C9F70E9462
:1001100033030C9404060C94000090E0FC01E255BB
:10012000FF4F2491FC01E656FF4F3491FC01EA5742
:10013000FF4FE491EE23C9F0222339F0233001F17F
:10014000A8F4213019F1223029F1F0E0EE0FFF1F61
:10015000E458FF4FA591B4918FB7F894EC916111D9
:1001600026C030953E233C938FBF08952730A9F0D9
:100170002830C9F0243049F7809180008F7D03C07A
:10018000809180008F7780938000DFCF84B58F7758
:1001900084BDDBCF84B58F7DFBCF8091B0008F779E
:1001A0008093B000D2CF8091B0008F7DF9CF3E2BED
:1001B000DACFCF93DF9390E0FC01E656FF4F249116
:1001C0008A579F4FFC0184918823D1F090E0880FDB
:1001D000991FFC01EE58FF4FA591B491FC01E45822
:1001E000FF4FC591D49161110EC09FB7F8948C91C7
:1001F000E22FE0958E238C932881E223E8839FBF32
:10020000DF91CF9108958FB7F894EC91E22BEC93A6
:100210008FBFF6CF3FB7F89480919C0290919D02DA
:10022000A0919E02B0919F0226B5A89B05C02F3FCA
:1002300019F00196A11DB11D3FBFBA2FA92F982F0C
:100240008827BC01CD01620F711D811D911D42E007
:10025000660F771F881F991F4A95D1F70895AF92AF
:10026000BF92CF92DF92EF92FF920F931F93CF93A3
:10027000DF936C017B018B01040F151FEB015E0105
:10028000AE18BF08C017D10759F06991D601ED919A
:10029000FC910190F081E02DC6010995892B79F739
:1002A000C501DF91CF911F910F91FF90EF90DF90EB
:1002B000CF90BF90AF900895209184013091850137
:1002C0002817390771F49091820180918301981762
:1002D00041F0E0918201F0E0EE5BFE4F808190E022
:1002E00008958FEF9FEF08950895EF92FF920F9377
:1002F0001F93CF93DF93DC015C96ED90FC905D97AC
:10030000E114F10479F481E090E013969C938E93CC
:10031000129790E080E0DF91CF911F910F91FF90B5
:10032000EF9008955196ED91FC91529750968C91D3
:100330005097982F90950FB75E962C915E97122F3D
:10034000127021FD6095F8942081112319F1282B5A
:100350002083E7012197F1F728E0462F50E0308114
:1003600060FF1AC0382B3083E7012197F1F7BA01FB
:1003700075956795215089F7112381F08081892334
:1003800080830FBF5C968D919C910197F1F781E07E
:1003900090E0C1CF2923DCCF3923E5CF9081892B91
:1003A000EFCF20918401309185012817390761F43E
:1003B000809183012091820190E0805C9F4F821B9D
:1003C00091098F739927089590E080E00895209116
:1003D00084013091850128173907B9F49091820181
:1003E00080918301981789F0E0918201F0E0EE5B43
:1003F000FE4F80812091820130E02F5F3F4F2F73AD
:1004000033272093820190E008958FEF9FEF0895A6
:1004100090E080E008950F931F93CF93DF93C2E1A4
:10042000D1E002E211E06991F80180810E5F1F4F77
:100430000E948D00F1E0C232DF07A9F7DF91CF9172
:100440001F910F9108958F929F92AF92BF920F9339
:100450001F93CF93DF93CDB7DEB7A1970FB6F89474
:10046000DEBF0FBECDBF19A2423008F44AE08E01B4
:100470000F5D1F4F842E912CB12CA12CA50194014E
:100480000E94DC05E62FB901CA01EA3044F5E05DBF
:10049000D801EE938D01232B242B252B79F790E0A7
:1004A00080E0109769F0FD0101900020E9F7319795
:1004B000AF014A1B5B0BBD0180EA92E00E942F0155
:1004C000A1960FB6F894DEBF0FBECDBFDF91CF91DE
:1004D0001F910F91BF90AF909F908F900895E95C0E
:1004E000D7CF1F920F920FB60F9211242F933F93E5
:1004F0008F939F93AF93BF938091980290919902AD
:10050000A0919A02B0919B023091970223E0230FB1
:100510002D3758F50196A11DB11D209397028093A8
:10052000980290939902A0939A02B0939B028091B3
:100530009C0290919D02A0919E02B0919F02019613
:10054000A11DB11D80939C0290939D02A0939E02D9
:10055000B0939F02BF91AF919F918F913F912F9147
:100560000F900FBE0F901F90189526E8230F02964C
:10057000A11DB11DD2CF1F920F920FB60F92112461
:100580002F933F934F935F936F937F938F939F939B
:10059000AF93BF93EF93FF93E0918401F0918501B6
:1005A000309749F0A685B7858585968D91FF14C053
:1005B0009C918923A1F4FF91EF91BF91AF919F91FD
:1005C0008F917F916F915F914F913F912F910F90FC
:1005D0000FBE0F901F9018959C91892361F7A389F6
:1005E000B4899C918589809589238C938689978984
:1005F0000197F1F7608D718DA685B785558538E037
:1006000020E0CB010197F1F7822F90E09595879537
:10061000282F4C91452309F02068315091F7868DA1
:1006200081FD20958091830190E001968F73992739
:1006300030918201381799F0A0918301B0E0AE5B50
:10064000BE4F2C9380938301828D938D0197F1F798
:10065000A389B4898C919589892B8C93ACCF868D95
:100660008160868FF1CF789484B5826084BD84B533
:10067000816084BD85B5826085BD85B5816085BD9D
:1006800080916E00816080936E0010928100809155
:1006900081008260809381008091810081608093DD
:1006A0008100809180008160809380008091B10002
:1006B00084608093B1008091B00081608093B0002D
:1006C00080917A00846080937A0080917A008260C1
:1006D00080937A0080917A00816080937A00809183
:1006E0007A00806880937A001092C10042E1E42E83
:1006F00041E0F42E06E811E0C2E2D1E088812296C2
:1007000061E00E94D900F70181917F01F801819396
:100710008F01F1E0C234DF0789F70E940B028CEDF4
:1007200095E0A0E0B0E08093A4029093A502A0938E
:10073000A602B093A7021092BB021092BA021092C6
:10074000B9021092B8021092B7021092B6028DE967
:1007500091E09093BD028093BC029091AC029631DF
:1007600008F047C02DEB30E03093B7022093B6027B
:100770002BE931E03093B9022093B8022CE231E04A
:100780003093BB022093BA022091680084E0983035
:1007900048F031E09E3008F430E081E001C0880F7D
:1007A0003A95EAF7822B809368002DE630E0983086
:1007B00050F02BE630E09E3030F02CE630E0963101
:1007C00010F030E020E03093B4022093B302292FE0
:1007D00030E0983008F09AC081E001C0880F9A9507
:1007E000EAF78093B5028091BC029091BD02019717
:1007F000F1F78091BA029091BB02892B49F1E09107
:100800008401F091850122E0E03AF20709F1309786
:1008100039F0A389B4899C918589809589238C932B
:100820008091BE028E7F8093BE021092830110924F
:10083000820180EA92E09093850180938401E091A7
:10084000B302F091B40280819091B502892B80832C
:10085000C7E9D2E0B12CA12C8824839400E010E0F9
:100860009924939437E9E32E31E0F32EF7011192A6
:10087000CE17DF07E1F7D12CC12C2FB7F894809168
:10088000980290919902A0919A02B0919B022FBF79
:100890008093A8029093A902A093AA02B093AB02FE
:1008A00080EA92E00E94E70197FF88C02FB7F89492
:1008B0008091980290919902A0919A02B0919B0226
:1008C0002FBF4091A8025091A9026091AA02709195
:1008D000AB02841B950BA60BB70B4091A402509161
:1008E000A5026091A6027091A70284179507A6073A
:1008F000B707B0F2CD2809F070C00E940B020115B5
:10090000110509F4AFCF0E940000ACCF9E3040F437
:100910002850310981E001C0880F2A95EAF761CF9C
:100920002E503109F7CF853671F488E991E00E94A5
:10093000B6058031910508F78A579E4FFC018082E9
:10094000909296016DC0843661F488E991E00E942E
:10095000B6058031910588F68A579E4FFC011082BA
:10096000EFCF823551F688E991E00E94B6056C011F
:10097000990FEE08FF080E940A012B013C01C114E7
:10098000D104E104F104B9F00E940A016419750967
:1009900086099709683E73408105910580F3F1E06F
:1009A000CF1AD108E108F10828EE420E23E0521ECA
:1009B000611C711CE4CFF50109959FCF8A30910528
:1009C00009F498CFF70181937F01FFEFCF1ADF0A77
:1009D000C11421E0D20609F050CF809197018836EA
:1009E000F9F0813709F09FCF26E8E22E21E0F22EC0
:1009F000F70161917F0170E090E080E04AE00E94A1
:100A0000230260E280EA92E00E947501F6E9EF16A7
:100A1000F1E0FF0669F76AE080EA92E00E94750162
:100A200080919601882309F46ACF82E2C82E81E082
:100A3000D82E96E8E92E91E0F92EF70161917F0119
:100A4000F6018081F2E0CF0ED11C0E948D0026E9D4
:100A5000E21621E0F20689F71092960150CF10922B
:100A6000A3021092A20288EE93E0A0E0B0E080938F
:100A7000A4029093A502A093A602B093A70284E0DB
:100A800091E09093A1028093A0021092B70210927D
:100A9000B6021092B9021092B8021092BB021092E4
:100AA000BA021092BD021092BC026091BE026E7F2B
:100AB0006D7F6093BE026695617081E068270E9439
:100AC0008D0061E081E00E94D900EBE9F0E0E49163
:100AD000E093B002E7E8F0E0E491F0E0EE0FFF1FF2
:100AE000E458FF4F859194919093B2028093B102A4
:100AF00060E080E00E94D9008091BE0281FD04C0C8
:100B000061E080E00E948D001092AC02EAE9F0E022
:100B1000E491E093AD02E6E8F0E0E491F0E0EE0F5E
:100B2000FF1FE859FF4F859194919093AF028093F6
:100B3000AE02089584E091E09093A1028093A00218
:100B40008091840190918501805A924071F4E091E6
:100B5000B302F091B40290818091B502809589230F
:100B6000808310928501109284010895FC018827EA
:100B70009927E89421912032E9F3293010F02E30A2
:100B8000C8F32B3241F02D3239F4689404C00E942E
:100B9000D405820F911D219120532A30C0F31EF4F9
:100BA000909581959F4F08957AE0979F902D879F0C
:100BB000802D910D11240895A1E21A2EAA1BBB1BB2
:100BC000FD010DC0AA1FBB1FEE1FFF1FA217B30719
:100BD000E407F50720F0A21BB30BE40BF50B661F2F
:100BE000771F881F991F1A9469F7609570958095F3
:100BF00090959B01AC01BD01CF010895EE0FFF1F41
:100C00000590F491E02D099410E0C2E6D0E004C014
:100C1000FE010E94FE052196C336D107C9F7F8945C
:020C2000FFCF04
:100C22000000000075012F0108027401D101E701E3
:100C32005C01000000000000000000000001010053
:100C420001000E000F0010001100120013000C0032
:100C52000D000400050006000700080009000A0054
:020C62000B0085
:00000001FF
